{
  "contractName": "Main",
  "abi": [
    {
      "payable": true,
      "stateMutability": "payable",
      "type": "fallback"
    },
    {
      "constant": false,
      "inputs": [
        {
          "internalType": "string",
          "name": "x",
          "type": "string"
        }
      ],
      "name": "set",
      "outputs": [],
      "payable": false,
      "stateMutability": "nonpayable",
      "type": "function"
    },
    {
      "constant": true,
      "inputs": [],
      "name": "get",
      "outputs": [
        {
          "internalType": "string",
          "name": "",
          "type": "string"
        }
      ],
      "payable": false,
      "stateMutability": "view",
      "type": "function"
    },
    {
      "constant": false,
      "inputs": [
        {
          "internalType": "address payable",
          "name": "_driver",
          "type": "address"
        },
        {
          "internalType": "address",
          "name": "_user",
          "type": "address"
        }
      ],
      "name": "finalizeDriver",
      "outputs": [],
      "payable": false,
      "stateMutability": "nonpayable",
      "type": "function"
    },
    {
      "constant": false,
      "inputs": [
        {
          "internalType": "address payable",
          "name": "_address",
          "type": "address"
        },
        {
          "internalType": "address payable",
          "name": "_driver",
          "type": "address"
        }
      ],
      "name": "addEligibleDriver",
      "outputs": [],
      "payable": false,
      "stateMutability": "nonpayable",
      "type": "function"
    },
    {
      "constant": true,
      "inputs": [
        {
          "internalType": "address",
          "name": "_user",
          "type": "address"
        }
      ],
      "name": "returnDriverArray",
      "outputs": [
        {
          "internalType": "address[]",
          "name": "",
          "type": "address[]"
        }
      ],
      "payable": false,
      "stateMutability": "view",
      "type": "function"
    },
    {
      "constant": false,
      "inputs": [
        {
          "internalType": "address payable",
          "name": "_driver",
          "type": "address"
        }
      ],
      "name": "stageDriverStatus",
      "outputs": [],
      "payable": false,
      "stateMutability": "nonpayable",
      "type": "function"
    },
    {
      "constant": true,
      "inputs": [],
      "name": "returnDriverStatus",
      "outputs": [
        {
          "internalType": "address payable",
          "name": "",
          "type": "address"
        }
      ],
      "payable": false,
      "stateMutability": "view",
      "type": "function"
    },
    {
      "constant": false,
      "inputs": [],
      "name": "clearDriverStatus",
      "outputs": [],
      "payable": false,
      "stateMutability": "nonpayable",
      "type": "function"
    },
    {
      "constant": false,
      "inputs": [
        {
          "internalType": "address",
          "name": "_user",
          "type": "address"
        }
      ],
      "name": "setUserConfirmation",
      "outputs": [],
      "payable": false,
      "stateMutability": "nonpayable",
      "type": "function"
    },
    {
      "constant": true,
      "inputs": [
        {
          "internalType": "address",
          "name": "_user",
          "type": "address"
        },
        {
          "internalType": "uint256",
          "name": "_amount",
          "type": "uint256"
        }
      ],
      "name": "setCost",
      "outputs": [],
      "payable": false,
      "stateMutability": "view",
      "type": "function"
    },
    {
      "constant": false,
      "inputs": [
        {
          "internalType": "address",
          "name": "_user",
          "type": "address"
        }
      ],
      "name": "setDriverConfimation",
      "outputs": [],
      "payable": false,
      "stateMutability": "nonpayable",
      "type": "function"
    },
    {
      "constant": false,
      "inputs": [
        {
          "internalType": "address",
          "name": "_user",
          "type": "address"
        }
      ],
      "name": "finalizeTrip",
      "outputs": [],
      "payable": true,
      "stateMutability": "payable",
      "type": "function"
    }
  ],
  "bytecode": "0x608060405234801561001057600080fd5b506114a8806100206000396000f3fe6080604052600436106100a75760003560e01c80636d4ce63c116100645780636d4ce63c146103815780637114241d1461041157806372857ecd14610428578063891255ae146104995780639a4c89cc146104dd578063f38de3d51461052e576100a7565b806329dff70a146100a95780633e6aeeb5146100fa5780633e87efac146101515780634ed3885e146101a25780635fcb44fd1461026a5780636750da0714610310575b005b3480156100b557600080fd5b506100f8600480360360208110156100cc57600080fd5b81019080803573ffffffffffffffffffffffffffffffffffffffff169060200190929190505050610589565b005b34801561010657600080fd5b5061010f610682565b604051808273ffffffffffffffffffffffffffffffffffffffff1673ffffffffffffffffffffffffffffffffffffffff16815260200191505060405180910390f35b34801561015d57600080fd5b506101a06004803603602081101561017457600080fd5b81019080803573ffffffffffffffffffffffffffffffffffffffff1690602001909291905050506106cd565b005b3480156101ae57600080fd5b50610268600480360360208110156101c557600080fd5b81019080803590602001906401000000008111156101e257600080fd5b8201836020820111156101f457600080fd5b8035906020019184600183028401116401000000008311171561021657600080fd5b91908080601f016020809104026020016040519081016040528093929190818152602001838380828437600081840152601f19601f8201169050808301925050505050505091929192905050506107c6565b005b34801561027657600080fd5b506102b96004803603602081101561028d57600080fd5b81019080803573ffffffffffffffffffffffffffffffffffffffff1690602001909291905050506107e0565b6040518080602001828103825283818151815260200191508051906020019060200280838360005b838110156102fc5780820151818401526020810190506102e1565b505050509050019250505060405180910390f35b34801561031c57600080fd5b5061037f6004803603604081101561033357600080fd5b81019080803573ffffffffffffffffffffffffffffffffffffffff169060200190929190803573ffffffffffffffffffffffffffffffffffffffff1690602001909291905050506108b0565b005b34801561038d57600080fd5b50610396610b74565b6040518080602001828103825283818151815260200191508051906020019080838360005b838110156103d65780820151818401526020810190506103bb565b50505050905090810190601f1680156104035780820380516001836020036101000a031916815260200191505b509250505060405180910390f35b34801561041d57600080fd5b50610426610c16565b005b34801561043457600080fd5b506104976004803603604081101561044b57600080fd5b81019080803573ffffffffffffffffffffffffffffffffffffffff169060200190929190803573ffffffffffffffffffffffffffffffffffffffff169060200190929190505050610c75565b005b6104db600480360360208110156104af57600080fd5b81019080803573ffffffffffffffffffffffffffffffffffffffff169060200190929190505050610d03565b005b3480156104e957600080fd5b5061052c6004803603602081101561050057600080fd5b81019080803573ffffffffffffffffffffffffffffffffffffffff169060200190929190505050611070565b005b34801561053a57600080fd5b506105876004803603604081101561055157600080fd5b81019080803573ffffffffffffffffffffffffffffffffffffffff169060200190929190803590602001909291905050506112c7565b005b600073ffffffffffffffffffffffffffffffffffffffff16600160008373ffffffffffffffffffffffffffffffffffffffff1673ffffffffffffffffffffffffffffffffffffffff16815260200190815260200160002060020160009054906101000a900473ffffffffffffffffffffffffffffffffffffffff1673ffffffffffffffffffffffffffffffffffffffff16141561062557600080fd5b60018060008373ffffffffffffffffffffffffffffffffffffffff1673ffffffffffffffffffffffffffffffffffffffff16815260200190815260200160002060020160156101000a81548160ff02191690831515021790555050565b6000801515600360019054906101000a900460ff16151514156106c957600360029054906101000a900473ffffffffffffffffffffffffffffffffffffffff1690506106ca565b5b90565b600073ffffffffffffffffffffffffffffffffffffffff16600160008373ffffffffffffffffffffffffffffffffffffffff1673ffffffffffffffffffffffffffffffffffffffff16815260200190815260200160002060020160009054906101000a900473ffffffffffffffffffffffffffffffffffffffff1673ffffffffffffffffffffffffffffffffffffffff16141561076957600080fd5b60018060008373ffffffffffffffffffffffffffffffffffffffff1673ffffffffffffffffffffffffffffffffffffffff16815260200190815260200160002060020160146101000a81548160ff02191690831515021790555050565b80600090805190602001906107dc9291906113ad565b5050565b6060600160008373ffffffffffffffffffffffffffffffffffffffff1673ffffffffffffffffffffffffffffffffffffffff1681526020019081526020016000206000018054806020026020016040519081016040528092919081815260200182805480156108a457602002820191906000526020600020905b8160009054906101000a900473ffffffffffffffffffffffffffffffffffffffff1673ffffffffffffffffffffffffffffffffffffffff168152602001906001019080831161085a575b50505050509050919050565b600160008373ffffffffffffffffffffffffffffffffffffffff1673ffffffffffffffffffffffffffffffffffffffff1681526020019081526020016000206000018190806001815401808255809150509060018203906000526020600020016000909192909190916101000a81548173ffffffffffffffffffffffffffffffffffffffff021916908373ffffffffffffffffffffffffffffffffffffffff160217905550506000600160008473ffffffffffffffffffffffffffffffffffffffff1673ffffffffffffffffffffffffffffffffffffffff16815260200190815260200160002060020160146101000a81548160ff0219169083151502179055506000600160008473ffffffffffffffffffffffffffffffffffffffff1673ffffffffffffffffffffffffffffffffffffffff16815260200190815260200160002060020160156101000a81548160ff02191690831515021790555060008090505b600280549050811015610aaf578273ffffffffffffffffffffffffffffffffffffffff1660028281548110610a4357fe5b9060005260206000200160009054906101000a900473ffffffffffffffffffffffffffffffffffffffff1673ffffffffffffffffffffffffffffffffffffffff161415610aa25760001515600360009054906101000a90505050610aaf565b8080600101915050610a12565b5060011515600360009054906101000a900460ff1615151415610b375760028290806001815401808255809150509060018203906000526020600020016000909192909190916101000a81548173ffffffffffffffffffffffffffffffffffffffff021916908373ffffffffffffffffffffffffffffffffffffffff16021790555050610b70565b60001515600360009054906101000a900460ff1615151415610b6f576001600360006101000a81548160ff0219169083151502179055505b5b5050565b606060008054600181600116156101000203166002900480601f016020809104026020016040519081016040528092919081815260200182805460018160011615610100020316600290048015610c0c5780601f10610be157610100808354040283529160200191610c0c565b820191906000526020600020905b815481529060010190602001808311610bef57829003601f168201915b5050505050905090565b6001600360016101000a81548160ff0219169083151502179055506000600360026101000a81548173ffffffffffffffffffffffffffffffffffffffff021916908373ffffffffffffffffffffffffffffffffffffffff160217905550565b81600160008373ffffffffffffffffffffffffffffffffffffffff1673ffffffffffffffffffffffffffffffffffffffff16815260200190815260200160002060020160006101000a81548173ffffffffffffffffffffffffffffffffffffffff021916908373ffffffffffffffffffffffffffffffffffffffff160217905550610cff8161135c565b5050565b60011515600160008373ffffffffffffffffffffffffffffffffffffffff1673ffffffffffffffffffffffffffffffffffffffff16815260200190815260200160002060020160149054906101000a900460ff16151514610d6357600080fd5b60011515600160008373ffffffffffffffffffffffffffffffffffffffff1673ffffffffffffffffffffffffffffffffffffffff16815260200190815260200160002060020160159054906101000a900460ff16151514610dc357600080fd5b600160008273ffffffffffffffffffffffffffffffffffffffff1673ffffffffffffffffffffffffffffffffffffffff16815260200190815260200160002060010154471015610e1257600080fd5b600160008273ffffffffffffffffffffffffffffffffffffffff1673ffffffffffffffffffffffffffffffffffffffff16815260200190815260200160002060020160009054906101000a900473ffffffffffffffffffffffffffffffffffffffff1673ffffffffffffffffffffffffffffffffffffffff166108fc600160008473ffffffffffffffffffffffffffffffffffffffff1673ffffffffffffffffffffffffffffffffffffffff168152602001908152602001600020600101549081150290604051600060405180830381858888f19350505050158015610efc573d6000803e3d6000fd5b5060001515600160008373ffffffffffffffffffffffffffffffffffffffff1673ffffffffffffffffffffffffffffffffffffffff16815260200190815260200160002060020160149054906101000a9050505060001515600160008373ffffffffffffffffffffffffffffffffffffffff1673ffffffffffffffffffffffffffffffffffffffff16815260200190815260200160002060020160159054906101000a905050506000600160008373ffffffffffffffffffffffffffffffffffffffff1673ffffffffffffffffffffffffffffffffffffffff16815260200190815260200160002060020160006101000a81548173ffffffffffffffffffffffffffffffffffffffff021916908373ffffffffffffffffffffffffffffffffffffffff1602179055506000600160008373ffffffffffffffffffffffffffffffffffffffff1673ffffffffffffffffffffffffffffffffffffffff1681526020019081526020016000206001018190555050565b60008090505b6002805490508110156112c35760001515600360019054906101000a900460ff16151514156110a4576112c3565b60008090505b60016000600284815481106110bb57fe5b9060005260206000200160009054906101000a900473ffffffffffffffffffffffffffffffffffffffff1673ffffffffffffffffffffffffffffffffffffffff1673ffffffffffffffffffffffffffffffffffffffff168152602001908152602001600020600001805490508110156112b5578273ffffffffffffffffffffffffffffffffffffffff16600160006002858154811061115657fe5b9060005260206000200160009054906101000a900473ffffffffffffffffffffffffffffffffffffffff1673ffffffffffffffffffffffffffffffffffffffff1673ffffffffffffffffffffffffffffffffffffffff16815260200190815260200160002060000182815481106111c957fe5b9060005260206000200160009054906101000a900473ffffffffffffffffffffffffffffffffffffffff1673ffffffffffffffffffffffffffffffffffffffff1614156112a8576002828154811061121d57fe5b9060005260206000200160009054906101000a900473ffffffffffffffffffffffffffffffffffffffff16600360026101000a81548173ffffffffffffffffffffffffffffffffffffffff021916908373ffffffffffffffffffffffffffffffffffffffff1602179055506000600360016101000a81548160ff0219169083151502179055506112b5565b80806001019150506110aa565b508080600101915050611076565b5050565b6000600160008473ffffffffffffffffffffffffffffffffffffffff1673ffffffffffffffffffffffffffffffffffffffff168152602001908152602001600020600101541461131657600080fd5b80600160008473ffffffffffffffffffffffffffffffffffffffff1673ffffffffffffffffffffffffffffffffffffffff16815260200190815260200160002050505050565b600160008273ffffffffffffffffffffffffffffffffffffffff1673ffffffffffffffffffffffffffffffffffffffff16815260200190815260200160002060000160006113aa919061142d565b50565b828054600181600116156101000203166002900490600052602060002090601f016020900481019282601f106113ee57805160ff191683800117855561141c565b8280016001018555821561141c579182015b8281111561141b578251825591602001919060010190611400565b5b509050611429919061144e565b5090565b508054600082559060005260206000209081019061144b919061144e565b50565b61147091905b8082111561146c576000816000905550600101611454565b5090565b9056fea265627a7a72315820db342b1cb1a3f1e70b22b5f85178d78ff4782e1006af739aa03685a4b4f1b5b264736f6c63430005100032",
  "source": "pragma solidity >=0.4.21 <0.7.0;\n\ncontract Main {\n    \n    //Ipfs thing\n  string storedData;\n\n  function set(string memory x) public {\n    storedData = x;\n  }\n\n  function get() public view returns (string memory) {\n    return storedData;\n  }\n \n  function () external payable {\n\n  }\n  \n  struct eligibleDrivers {\n      address[] drivers;\n      uint256 amount;\n      address payable finalDriver;\n      bool userConfirmation;\n      bool driverConfirmation;\n      \n  }\n  \n  mapping(address => eligibleDrivers) driverTable; \n  address payable[] driverTableAddresses;\n  \n  function clearDrivers(address _address) private {\n    delete driverTable[_address].drivers;\n  }\n  \n  function finalizeDriver(address payable _driver, address _user) public {\n      driverTable[_user].finalDriver = _driver;\n      clearDrivers(_user);\n  }\n  \n    bool temp;\n  //WE NEED TO FIX THIS \n  function addEligibleDriver(address payable _address, address payable _driver) public {\n      driverTable[_address].drivers.push(_driver);\n      driverTable[_address].userConfirmation = false;\n      driverTable[_address].driverConfirmation = false;\n      for (uint256 j = 0; j < driverTableAddresses.length; j++) {\n        if (driverTableAddresses[j] == _address) {\n            temp == false;\n            break;\n        }\n      }\n      if (temp == true) {\n          driverTableAddresses.push(_address);\n      } else if (temp == false){\n          temp = true;\n      }\n  }\n  \n  function returnDriverArray(address _user) public view returns (address[] memory) {\n      return driverTable[_user].drivers;\n  }\n  \n  bool breaker;\n  address payable tempAddress;\n  \n  function stageDriverStatus(address payable _driver) public {\n    for (uint256 i = 0; i < driverTableAddresses.length; i++) {\n        if (breaker == false) {\n            break;\n        }\n        for (uint256 j = 0; j < driverTable[driverTableAddresses[i]].drivers.length; j++) {\n            if (driverTable[driverTableAddresses[i]].drivers[j] == _driver) {\n                tempAddress = driverTableAddresses[i];\n                breaker = false;\n                break;\n            }\n        }\n    }\n  }\n  \n  function returnDriverStatus() public view returns (address payable) {\n      if (breaker == false) {\n          return tempAddress;\n      }\n  }\n  \n  function clearDriverStatus() public {\n      breaker = true;\n      tempAddress = address(0);\n  }\n  \n  \n  function setUserConfirmation(address _user) public {\n      require (driverTable[_user].finalDriver != address(0));\n      driverTable[_user].userConfirmation = true;\n  }\n\n  function setCost(address _user, uint256 _amount) public view {\n      require (driverTable[_user].amount == 0);\n      driverTable[_user].amount == _amount;\n  }\n  \n  function setDriverConfimation(address _user) public {\n      require (driverTable[_user].finalDriver != address(0));\n      driverTable[_user].driverConfirmation = true;\n  }\n  \n  function finalizeTrip(address _user) public payable {\n      require (driverTable[_user].userConfirmation == true);\n      require (driverTable[_user].driverConfirmation == true);\n      require (address(this).balance >= driverTable[_user].amount);\n      driverTable[_user].finalDriver.transfer(driverTable[_user].amount);\n      driverTable[_user].userConfirmation == false;\n      driverTable[_user].driverConfirmation == false;\n      driverTable[_user].finalDriver = address(0);\n      driverTable[_user].amount = 0;\n      \n      \n  }\n  \n  \n}\n",
  "sourcePath": "C:\\Users\\Admin\\OneDrive\\Desktop\\LiftDu\\contracts\\Main.sol",
  "compiler": {
    "name": "solc",
    "version": "0.5.16+commit.9c3226ce.Emscripten.clang"
  },
  "schemaVersion": "3.4.14",
  "updatedAt": "2023-09-22T16:36:35.083Z",
  "networkType": "ethereum",
  "devdoc": {
    "methods": {}
  },
  "userdoc": {
    "methods": {}
  }
}