{
  "contractName": "Transfer",
  "abi": [
    {
      "constant": false,
      "inputs": [
        {
          "internalType": "address payable",
          "name": "to",
          "type": "address"
        }
      ],
      "name": "transfer",
      "outputs": [],
      "payable": true,
      "stateMutability": "payable",
      "type": "function"
    }
  ],
  "bytecode": "0x608060405234801561001057600080fd5b5060e08061001f6000396000f3fe608060405260043610601c5760003560e01c80631a695230146021575b600080fd5b606060048036036020811015603557600080fd5b81019080803573ffffffffffffffffffffffffffffffffffffffff1690602001909291905050506062565b005b8073ffffffffffffffffffffffffffffffffffffffff166108fc349081150290604051600060405180830381858888f1935050505015801560a7573d6000803e3d6000fd5b505056fea265627a7a72315820740443c0eca0d399d2fbd17c7018bd58ee629670bed5442c056f134d03f955e664736f6c63430005100032",
  "source": "pragma solidity ^0.5.16;\n\ncontract Transfer\n{\n\tfunction transfer(address payable to)\n\texternal payable\n\t{\n\t\tto.transfer(msg.value);\n\t}\n}",
  "sourcePath": "C:\\Users\\Admin\\OneDrive\\Desktop\\LiftDu\\contracts\\Transfer.sol",
  "compiler": {
    "name": "solc",
    "version": "0.5.16+commit.9c3226ce.Emscripten.clang"
  },
  "schemaVersion": "3.4.14",
  "updatedAt": "2023-09-22T16:36:37.460Z",
  "networkType": "ethereum",
  "devdoc": {
    "methods": {}
  },
  "userdoc": {
    "methods": {}
  }
}